S00C000064656D6F2E7372656373
S11300000C9456000C9460000C9460000C946000F6
S11300100C9460000C9460000C9460000C946000DC
S11300200C9460000C9460000C9460000C946000CC
S11300300C9460000C9460000C9460000C946000BC
S11300400C9460000C9460000C9460000C946000AC
S11300500C9460000C9460000C9460000C9460009C
S11300600C9460000C9460000C9460000C9460008C
S11300700C9460000C9460000C9460000C9460007C
S11300800C9460000C9460000C9460000C9460006C
S11300900C9460000C9460000C9460000C9460005C
S11300A00C9460000C9460000C94600011241FBE3A
S11300B0CFEFDAE0DEBFCDBF0E94A6020C9454035A
S11300C00C940000589859988CE08093B8001092D2
S11300D0B90084E08093BC00089594EA9093BC0036
S11300E09091BC0097FFFCCF9091B900880F862BAC
S11300F08093BB0084E88093BC008091BC0087FFA0
S1130100FCCF8091B900089584EA8093BC0080916B
S1130110BC0087FFFCCF8091B9000895880F862B1F
S11301208093BB0084E88093BC008091BC0087FF6F
S1130130FCCF8091B900089584E98093BC0080913C
S1130140BC0084FDFCCF08958093BB0084E88093B9
S1130150BC008091BC0087FFFCCF8091B90008955A
S113016084E88093BC008091BC0087FFFCCF809121
S1130170BB00089584EC8093BC008091BC0087FF91
S1130180FCCF8091BB00089594EA9093BC009091B9
S1130190BC0097FFFCCF9091B90090E0880F991FA5
S11301A08093BB0084E88093BC008091BC0087FFEF
S11301B0FCCF8091B9006093BB0084E88093BC00BD
S11301C08091BC0087FFFCCF8091B9004093BB00B5
S11301D084E88093BC008091BC0087FFFCCF8091B1
S11301E0B90084E98093BC008091BC0084FDFCCFFD
S11301F00895469A089543E660E88AE50E94C4009B
S113020084EA8093BC008091BC0087FFFCCF80917E
S1130210B90084EB8093BB0084E88093BC00809198
S1130220BC0087FFFCCF8091B9008DE78093BB00B1
S113023084E88093BC008091BC0087FFFCCF809150
S1130240B90088EC8093BB0084E88093BC00809163
S1130250BC0087FFFCCF8091B90084E98093BC0087
S11302608091BC0084FDFCCF84EA8093BC00809123
S1130270BC0087FFFCCF8091B90084EB8093BB0066
S113028084E88093BC008091BC0087FFFCCF809100
S1130290B9008BE78093BB0084E88093BC00809115
S11302A0BC0087FFFCCF8091B90083E08093BB0042
S11302B084E88093BC008091BC0087FFFCCF8091D0
S11302C0B90084E98093BC008091BC0084FDFCCF1C
S11302D084EA8093BC008091BC0087FFFCCF8091AE
S11302E0B90084EB8093BB0084E88093BC008091C8
S11302F0BC0087FFFCCF8091B9008EE78093BB00E0
S113030084E88093BC008091BC0087FFFCCF80917F
S1130310B90084EB8093BB0084E88093BC00809197
S1130320BC0087FFFCCF8091B90084E98093BC00B6
S11303308091BC0084FDFCCF84EA8093BC00809152
S1130340BC0087FFFCCF8091B90084EB8093BB0095
S113035084E88093BC008091BC0087FFFCCF80912F
S1130360B9008FE78093BB0084E88093BC00809140
S1130370BC0087FFFCCF8091B90084E68093BB006A
S113038084E88093BC008091BC0087FFFCCF8091FF
S1130390B90084E98093BC008091BC0084FDFCCF4B
S11303A023E454EA44EB94E87CE034E966E05093B7
S11303B0BC008091BC0087FFFCCF8091B9004093C2
S11303C0BB009093BC008091BC0087FFFCCF809160
S11303D0B9008EEF820F8093BB009093BC00809194
S11303E0BC0087FFFCCF8091B9007093BB00909351
S11303F0BC008091BC0087FFFCCF8091B900309392
S1130400BC008091BC0084FDFCCF5093BC00809163
S1130410BC0087FFFCCF8091B9004093BB00909350
S1130420BC008091BC0087FFFCCF8091B900209371
S1130430BB009093BC008091BC0087FFFCCF8091EF
S1130440B9006093BB009093BC008091BC0087FF0F
S1130450FCCF8091B9003093BC008091BC0084FD36
S1130460FCCF2E5F2B3509F0A2CF41E06CE28AE588
S11304700E94C40041E06BE28AE50E94C40041E0AE
S11304806CE28AE50E94C4004FE06DE28AE50E94B6
S1130490C40040E06EE28AE50E94C40041E06FE2DD
S11304A08AE50E94C40045E060E38AE50E94C40036
S11304B041E061E38AE50E94C40040E062E38AE52A
S11304C00E94C40040E063E38AE50E94C40040E067
S11304D064E38AE50E94C40040E065E38AE50E9483
S11304E0C40084EA8093BC008091BC0087FFFCCFE9
S11304F08091B90084EB8093BB0084E88093BC00B6
S11305008091BC0087FFFCCF8091B9008EE5809379
S1130510BB0084E88093BC008091BC0087FFFCCFC3
S11305208091B9008FE08093BB0084E88093BC0085
S11305308091BC0087FFFCCF8091B90084E980934F
S1130540BC008091BC0084FDFCCF0895479A469876
S11305502E9A87B1806C87B9269A589859988CE05E
S11305608093B8001092B90084E08093BC000E948C
S1130570FB0084EA8093BC008091BC0087FFFCCF21
S11305808091B90084EB8093BB0084E88093BC0025
S11305908091BC0087FFFCCF8091B9008DE28093ED
S11305A0BB0084E88093BC008091BC0087FFFCCF33
S11305B08091B90084EA8093BC008091BC0087FFDD
S11305C0FCCF8091B90085EB8093BB0084E88093D5
S11305D0BC008091BC0087FFFCCF8091B90084E807
S11305E08093BC008091BC0087FFFCCF8091BB004E
S11305F094E99093BC009091BC0094FDFCCF8E30A4
S113060011F0469AFFCF24EA54EB94E845EB34E921
S11306102093BC008091BC0087FFFCCF8091B9007F
S11306205093BB009093BC008091BC0087FFFCCF2B
S11306308091B9001092BB009093BC008091BC00E3
S113064087FFFCCF8091B9002093BC008091BC004F
S113065087FFFCCF8091B9004093BB009093BC000E
S11306608091BC0087FFFCCF8091B9009093BC00BF
S11306708091BC0087FFFCCF6091BB003093BC002D
S11306808091BC0084FDFCCF379A61110BC02E9879
S11306906FEF73EC89E0615070408040E1F700C077
S10F06A00000B6CF2E9AFFCFF894FFCFD5
S9030000FC
