S00C000064656D6F2E7372656373
S113000012C019C018C017C016C015C014C013C040
S113001012C011C010C00FC00EC00DC00CC00BC068
S11300200AC009C008C011241FBECFE5D4E0DEBF5A
S1130030CDBF32D07CC0E4CF01979C0150E040E0BA
S113004060E472E48FE090E034D0832F99278093AA
S1130050CD002093CC00E9ECF0E0808188698083B6
S1130060EAECF0E080818E60808308959091C8006E
S113007095FFFCCF8093CE000895FC0120812223BC
S113008051F031969091C80095FFFCCF2093CE009B
S113009021912111F7CF0895479A3F9A379A2FEF6C
S11300A083EC99E0215080409040E1F700C00000CB
S11300B0F5CF052E97FB16F400940FD057FD05D00D
S11300C014D007FC02D046F408C0509540953095F2
S11300D021953F4F4F4F5F4F0895909580957095B0
S11300E061957F4F8F4F9F4F0895A1E21A2EAA1B4F
S11300F0BB1BFD010DC0AA1FBB1FEE1FFF1FA217D4
S1130100B307E407F50720F0A21BB30BE40BF50BD0
S1130110661F771F881F991F1A9469F76095709559
S1130120809590959B01AC01BD01CF010895F89491
S1050130FFCFFB
S9030000FC
