:100000009BC00000B5C00000B3C00000B1C000003C
:10001000AFC00000ADC00000ABC00000A9C0000030
:10002000A7C00000A5C0000099C30000A1C0000047
:100030009FC000009DC000009BC0000099C0000050
:1000400097C0000095C0000093C0000091C0000060
:100050008FC000008DC000008BC0000089C0000070
:1000600087C0000085C0000083C0000081C0000080
:100070007FC000007DC000007BC0000079C0000090
:1000800077C0000075C0000073C0000071C00000A0
:100090006FC000006DC000006BC0000069C00000B0
:1000A00067C0000065C0000063C000001C034C0076
:1000B000550046004100200043004400430020005A
:1000C000440065006D006F000000180344006500E7
:1000D00061006E002000430061006D006500720049
:1000E000610000000403090409023E00020100C08F
:1000F000320904000001020201000524001001047D
:100100002402060524060001070582030800FF09F2
:10011000040100020A0000000705040210000507A0
:100120000583021000051201100102000008EB0314
:10013000442001000102DC0111241FBECFEFDAE0F0
:10014000DEBFCDBF11E0A0E0B1E0E6E9F3E102C01F
:1001500005900D92A834B107D9F722E0A8E4B1E0E8
:1001600001C01D92A535B207E1F783D00C94C909EF
:1001700047CF84B7877F84BF0FB6F894A895809146
:100180006000886180936000109260000FBE80E87C
:1001900090E00FB6F89480936100909361000FBED9
:1001A000C0D29FD547D57894479A3F9A87E091E08F
:1001B0000BD687E091E008D687E091E005D687E08E
:1001C00091E002D687E091E0FFD587E091E0FCD591
:1001D00087E091E0F9D587E091E0F6D587E091E0FE
:1001E000F3D587E091E0F0D587E091E0EDD587E0A9
:1001F00091E0EAD587E091E0E7D587E091E0E4D5AA
:1002000087E091E0E1D587E091E0DED587E091E0FD
:10021000DBD587E091E0D8D587E091E0D5D587E0C0
:1002200091E0D2D587E091E0CFD587E091E0CCD5C1
:1002300087E091E0C9D587E091E0C6D587E091E0FD
:10024000C3D587E091E0C0D587E091E0BDD52FEF21
:1002500083E294EF215080409040E1F700C000001D
:1002600013D52FEF84E39CE0215080409040E1F7CC
:10027000F5CF7FDF0895089542E061EC82E08FD1F1
:1002800042E161E883E08BD142E160E884E087D11C
:1002900010920001109201011092020110920301CC
:1002A000089580914E028132B1F0823241F1803264
:1002B00081F580914D02813261F58091E800877F60
:1002C0008093E80067E070E080E091E0CFD080911B
:1002D000E8008E7711C080914D02813AD1F480916F
:1002E000E800877F8093E80067E070E080E091E0BD
:1002F0005FD08091E8008B778093E800089580912B
:100300004D02813231F48091E800877F8093E800CC
:100310007AC10895AF92BF92CF92DF92FF920F936E
:100320001F93CF93DF936C01EB018A018BD1F82EE1
:10033000811124C00115110539F0F80180819181E6
:10034000C81BD90BC80ED91EB12CA12C2097B1F017
:100350008091E80085FD22C08091E8008E7780932F
:10036000E8001CD401151105A1F0F80180819181EC
:10037000A80EB91EB182A08285E0F82E8F2DDF91E4
:10038000CF911F910F91FF90DF90CF90BF90AF90D2
:10039000089558D18823D1F2F82EF0CFF60181913B
:1003A0006F018093F1002197FFEFAF1ABF0ACECF04
:1003B000FC01809153029091540286179707A0F098
:1003C0006115710529F49091E8009E779093E800FB
:1003D00090E06115710551F4911108C08091E80019
:1003E00082FF34C080E00895BC01F2CF80914C02BE
:1003F0008823C1F18530C1F18091E80083FD30C0D0
:100400008091E80082FDEACF8091E80080FFE1CF93
:100410008091F3002091F200382F6115710519F0D9
:100420002830310558F091E02830310509F090E08E
:100430002091E8002E772093E800CBCF8191809324
:10044000F100615071092F5F3F4FE7CF80914C025F
:10045000882341F0853041F08091E80083FFBECFD2
:1004600081E0089582E0089583E00895FC0161151C
:10047000710529F49091E8009B779093E80061154D
:10048000710531F48091E80080FF1EC080E008957E
:1004900080914C02882311F18530E1F08091E800D1
:1004A00083FD1AC08091E80082FFE9CF8091F300BC
:1004B0002091F200382F232BE9F28091F1008193F3
:1004C0006150710999F7D6CF80914C02882331F0A1
:1004D0008530C1F683E0089581E0089582E00895B3
:1004E000FC01809153029091540286179707A0F067
:1004F0006115710529F48091E8008E778093E800FA
:1005000090E06115710551F4911108C08091E800E7
:1005100082FF35C080E00895BC01F2CF80914C028B
:100520008823C9F18530C9F18091E80083FD31C08D
:100530008091E80082FDEACF8091E80080FFE1CF62
:100540008091F3002091F200382F6115710519F0A8
:100550002830310558F091E02830310509F090E05D
:100560008091E8008E778093E800CBCF84918093D0
:10057000F1003196615071092F5F3F4FE6CF8091B6
:100580004C02882341F0853041F08091E80083FFE0
:10059000BDCF81E0089582E0089583E00895982F0B
:1005A000973028F08F708093E90081E00895909350
:1005B000E900242F762F50E0981731F07091EC006D
:1005C0002091ED005091F00021FD02C09F5FE8CF27
:1005D0003091EB003E7F3093EB003091ED003D7F9A
:1005E0003093ED003091EB0031603093EB0070936D
:1005F000EC002093ED005093F0002091EE0027FDD9
:10060000E5CF80E0089580914D0287FF13C080916F
:10061000E80082FF06C08091E8008B778093E800B5
:1006200004C080914C028111F2CF089580914C0258
:100630008823D9F38091E80080FFF8CF8091E8000B
:100640008E77ECCF2091E4003091E50085E6A9019A
:100650009091EC0090FF06C09091E80090FF06C0DA
:1006600080E008959091E80092FDFACF90914C02BD
:10067000992389F0953089F09091EB0095FD0FC09A
:100680002091E4003091E5004217530709F38150AF
:10069000F1F684E0089582E0089583E0089581E012
:1006A00008950F931F93CF93DF934BD052D0C8ED93
:1006B000D0E088818F77888388818068888388816B
:1006C0008F7D888319BC10924C02109248021092C0
:1006D0004A021092490200EE10E0F80180818B7FFF
:1006E000808388818160888342E060E080E057DF1A
:1006F000E1EEF0E080818E7F8083E2EEF0E08081A9
:1007000081608083808188608083F80180818E7F12
:100710008083888180618883DF91CF911F910F91C1
:100720000895E8EDF0E080818F7E8083E7EDF0E0D2
:1007300080818160808384E082BF81E080934B026E
:10074000B0CFE8EDF0E080818E7F80831092E200F0
:1007500008951092DA001092E10008951F920F920E
:100760000FB60F9211242F933F934F935F936F9384
:100770007F938F939F93AF93BF93EF93FF9380915A
:10078000E10082FF0AC08091E20082FF06C08091F2
:10079000E1008B7F8093E10000D28091DA0080FF3E
:1007A00017C08091D80080FF13C08091DA008E7F3F
:1007B0008093DA008091D90019BC80FF87C082E065
:1007C00089BD09B400FEFDCF81E080934C0252DD6B
:1007D0008091E10080FF18C08091E20080FF14C08A
:1007E0008091E2008E7F8093E2008091E200806140
:1007F0008093E2008091D80080628093D80019BC79
:1008000085E080934C02C9D18091E10084FF27C02C
:100810008091E20084FF23C019BC82E089BD09B445
:1008200000FEFDCF8091D8008F7D8093D80080910D
:10083000E1008F7E8093E1008091E2008F7E8093C3
:10084000E2008091E20081608093E20080914802A2
:10085000882309F43FC084E080934C029ED18091AC
:10086000E10083FF22C08091E20083FF1EC08091DF
:10087000E100877F8093E10082E080934C02109238
:1008800048028091E1008E7F8093E1008091E20038
:100890008E7F8093E2008091E20080618093E2008D
:1008A00042E060E080E07BDE78D1FF91EF91BF9184
:1008B000AF919F918F917F916F915F914F913F91F8
:1008C0002F910F900FBE0F901F90189510924C0211
:1008D000D2DC7ECF8091E30087FD02C081E0BCCFF7
:1008E00083E0BACF1F93CF93DF93CDB7DEB7AA973C
:1008F0000FB6F894DEBF0FBECDBF8DE492E020911D
:10090000F100FC012193CF01F2E085359F07B9F793
:10091000C8DC8091E80083FF11C090914D02809166
:100920004E02853009F4C3C008F5813009F48CC04B
:10093000882309F461C0833009F486C08091E800FF
:1009400083FF0AC08091E800877F8093E800809150
:10095000EB0080628093EB00AA960FB6F894DEBF9E
:100960000FBECDBFDF91CF911F910895883009F45C
:10097000D5C0893009F4DFC0863001F79058923035
:10098000E8F680914F02909150028C3D23E092074F
:1009900009F0AFC083E08A838AE289834FB7F89475
:1009A000DE01139620E03EE051E2E32FF0E05093A9
:1009B0005700E49120FF03C0E295EF703F5FEF70B6
:1009C0008E2F90E0EA3008F492C0C7968D939D93E5
:1009D0002F5F243151F74FBF8091E800877F8093CC
:1009E000E8006AE270E0CE010196E2DC8091E80066
:1009F0008B778093E800A2CF903899F0923809F075
:100A00009DCF809151028F70873008F097CF8093EF
:100A1000E9008091EB0085FB882780F91092E900BE
:100A200006C08091490290914A0291118260909192
:100A3000E800977F9093E8008093F1001092F10016
:100A40008091E8008E77A5C0992309F492C0923076
:100A500009F074CF90914F02911196C0909151027C
:100A60009F702FEF290F263008F068CF9093E90090
:100A70002091EB0020FF88C0833031F48091EB009F
:100A800080628093EB0080C08091EB008061809356
:100A9000EB0021E030E001C0220F9A95EAF72093A5
:100AA000EA001092EA008091EB008860EACF911191
:100AB00045CF10914F021F778091E3008078812B02
:100AC0008093E3008091E800877F8093E8009BDDBE
:100AD0008091E80080FFFCCF8091E30080688093E4
:100AE000E30082E0111183E080934C0227CFC0968F
:100AF0006DCF6091510270915202AE014F5F5F4F16
:100B000068D0BC01892B09F419CF9091E800977F38
:100B10009093E80089819A81E3DC68CF903809F0EE
:100B20000DCF8091E800877F8093E8008091480294
:100B30008093F10085CF911101CF90914F029230B7
:100B400008F0FCCE8091E800877F8093E8009093C6
:100B5000480259DD80914802882311F084E005C0E5
:100B60008091E30087FDFACF81E080934C0284DB23
:100B7000E5CE90914F02913009F0E0CE91E08330C4
:100B800009F090E090934A021092E9008091E80009
:100B9000877F8093E80037DDD1CE0895CF93809191
:100BA0004C02882391F0C091E900CF708091EC0055
:100BB00080FD0DC080E0C82B1092E9008091E80014
:100BC00083FD90DECF70C093E900CF91089580E857
:100BD000F2CF292F33272230310511F1233031058F
:100BE00059F02130310509F190E080E030E020E05B
:100BF000FA0131832083089599278130910569F0A6
:100C0000009729F0029781F7ECEAF0E002C0E4EEE9
:100C1000F0E0849190E09F01EBCFEAECF0E0F9CFB7
:100C20008EE390E028EE30E0E3CF82E190E026E230
:100C300031E0DECFCF93DF93CDB7DEB764970FB649
:100C4000F894DEBF0FBECDBF4CD0549A5C9A5C982E
:100C50008FE19EE40197F1F700C000005C9A80E10B
:100C600089838EEB8A838FEE8B831C8270E060E039
:100C7000CE01019653D064960FB6F894DEBF0FBE36
:100C8000CDBFDF91CF910895CF93DF93CDB7DEB77E
:100C9000A8970FB6F894DEBF0FBECDBF80E18D8B55
:100CA00080EA8E8B1F8A8DE0888FEFE0F1E0DE0115
:100CB000599601900D928A95E1F7BE016F5F7F4FC3
:100CC000CE0145962BD081E09D81903309F480E0E0
:100CD000A8960FB6F894DEBF0FBECDBFDF91CF91BF
:100CE000089583E084B981E58CBD0895CF938EBDCE
:100CF0000DB407FEFDCFCEB51F92CF931F928F93F9
:100D00008DE191E09F938F936ED00F900F900F9095
:100D10000F900F900F908C2FCF910895FF920F930B
:100D20001F93CF93DF938C01EB012C988EE291E01F
:100D30004BD0F8018081DADF8E3F71F18FEC97E0C4
:100D40000197F1F700C00000F8018281CFDFF801C0
:100D50008181CCDFF8018381C9DFF12CF801838127
:100D6000F81618F12C9A8CE391E02ED08FEFBEDFAD
:100D700088838FEFBBDF8A838FEFB8DF89838FEFA4
:100D8000B5DF8B8310E08B811817B0F0DF91CF9126
:100D90001F910F91FF9008952C9A8FEC97E0019787
:100DA000F1F700C000002C98C4CFF801EF0DF11D41
:100DB00084819CDFF394D2CF8FEF98DFFE01E10FA7
:100DC000F11D84831F5FDFCF23E02093E900FC0146
:100DD00001900020E9F73197BF01681B790B50E0C3
:100DE00040E098DADBCECF93DF93CDB7DEB79E013C
:100DF0002B5F3F4FF901419151919F0160E071E0FC
:100E000088E491E006D088E491E0DEDFDF91CF91C5
:100E10000895AEE0B0E0EEE0F7E092C28C01FA0196
:100E200086E08C831A83098377FF02C060E070E854
:100E3000615071097E836D83A901BF01CE010196C6
:100E400011D04D815E8157FD0AC02F813885421730
:100E500053070CF49A01020F131FF80110822E960B
:100E6000E4E08AC2ABE0B0E0E7E3F7E05BC27C011C
:100E70003B018A01FC0117821682838181FFABC18D
:100E80009AE0292ECE0101965C01F7019381F301CE
:100E900093FD859193FF81913F01882309F43CC123
:100EA000853239F493FD859193FF81913F0185321D
:100EB00021F4B70190E0A8D1E8CF912C412C512C1E
:100EC000FFE1F51538F08B3209F188F4803201F139
:100ED000833221F157FC3AC020ED280F2A3040F52B
:100EE00056FE1FC0929C200D1124922E06C08D32FA
:100EF00091F0803379F7689450F8F30193FD859170
:100F000093FF81913F018111DBCF20C0689451F89C
:100F1000689452F8F2CF689453F8EFCF689454F87D
:100F2000ECCF429C200D1124422E689455F8E5CF59
:100F30008E3229F456FCF0C0689456F8DECF8C3619
:100F400019F4689457F8D9CF8836B9F2982F9F7D55
:100F500095549330B8F0833691F18337B1F18335EE
:100F600009F056C0F801C190D1908F01692D70E051
:100F700056FC02C06FEF7FEFC60130D14C01689480
:100F800057F80AC00C5F1F4F2FE3298388248394EE
:100F9000912C6501E89457F853FC04C048141904D7
:100FA00009F008F5342C8114910419F5332009F463
:100FB0006CCFB70180E290E027D13A94F7CFF801E7
:100FC000808189830E5F1F4FE1CFF801C190D190DE
:100FD0008F01692D70E056FC02C06FEF7FEFC601F4
:100FE00008D14C01D7CFB70180E290E00DD14A94EF
:100FF000D5CFF60157FC859157FE81916F01B7015E
:1010000090E002D131103A94F1E08F1A9108CBCFE1
:10101000843619F0893609F070C0F80157FE66C0B1
:1010200061917191819191918F01252D2F76D22E11
:1010300097FF09C090958095709561957F4F8F4F70
:101040009F4F6894D7F82AE030E0A5010DD1C82E53
:10105000CA188C2C5D2CD6FE0CC0E89450F8C9142C
:1010600040F4D4FE05C0D2FC03C0FD2DFE7E5F2EF1
:10107000892C54FE8AC0FE01EC0DF11D8081803365
:1010800009F07CC0252D297E522E852D8870382EA2
:1010900053FC89C050FE83C09C2C841418F44C0C63
:1010A000942C981854FE85C0B70180E390E0ACD032
:1010B00052FE08C088E790E051FE02C088E590E04B
:1010C000B701A2D0C91408F480C0CA94D12C9FEFF4
:1010D000C91AD90ACA0CDB1CF60182916F01B7014B
:1010E00090E092D0AC14BD04B9F760CF61917191DA
:1010F000072E000C880B990B97CFD52CE894D4F8C9
:101100002AE030E0853731F1952D997FD92E8F3641
:10111000F9F040F48835A1F0F701868197812B968C
:10112000E2E11CC1803749F08837B1F7D4FE02C034
:101130006894D2F820E130E00DC06894D4F8F6CF7E
:1011400054FE03C0E92FE660DE2E20E132E002C04B
:1011500028E030E0F801D7FE0CC0619171918191D7
:1011600091918F01A50180D0C82ECA18E894D7F8B4
:1011700070CF6191719190E080E0F3CF52FC02C09A
:10118000839483CF8394839480CF852D867809F4CC
:101190007CCFF6CFB70180E290E036D08394841400
:1011A000C8F3312C7FCF342C3818841408F47ACF4C
:1011B000F8CF852D867809F485CF8BE251FE80E249
:1011C00057FC8DE2B70190E07CCFB70180E390E05F
:1011D0001BD09A9477CF8FEF9FEFA1CFFC010590A2
:1011E000615070400110D8F7809590958E0F9F1F29
:1011F0000895FC016150704001900110D8F780956E
:1012000090958E0F9F1F08950F931F93CF93DF9399
:10121000182F092FEB018B8181FD09C01FEF0FEF04
:10122000812F902FDF91CF911F910F91089582FF11
:1012300014C02E813F818C819D81281739073CF491
:10124000E881F981CF0101969983888310838E818B
:101250009F8101969F838E83E3CFE885F985812F57
:101260000995892BA1F3DACFFA01AA27283051F189
:10127000203181F1E8946F936E7F6E5F7F4F8F4FC7
:101280009F4FAF4FB1E03ED0B4E03CD0670F781F26
:10129000891F9A1FA11D680F791F8A1F911DA11D0B
:1012A0006A0F711D811D911DA11D20D009F4689444
:1012B0003F912AE0269F11243019305D3193DEF6EC
:1012C000CF010895462F4770405D4193B3E00FD0A2
:1012D000C9F7F6CF462F4F70405D4A3318F0495D8D
:1012E00031FD4052419302D0A9F7EACFB4E0A69570
:1012F0009795879577956795BA95C9F70097610592
:10130000710508959B01AC010A2E069457954795E7
:1013100037952795BA95C9F7620F731F841F951FDC
:10132000A01D08952F923F924F925F926F927F92ED
:101330008F929F92AF92BF92CF92DF92EF92FF92E5
:101340000F931F93CF93DF93CDB7DEB7CA1BDB0B91
:101350000FB6F894DEBF0FBECDBF09942A88398836
:1013600048885F846E847D848C849B84AA84B9843D
:10137000C884DF80EE80FD800C811B81AA81B98149
:10138000CE0FD11D0FB6F894DEBF0FBECDBFED015D
:061390000895F894FFCF60
:101396000000000000000848617074796B0A004183
:1013A600542B474150474554434F4E4E0030782505
:1013B600303278207C203078253032780A00536528
:1013C6006E64207061636B65743A0A0052657370CF
:0813D6006F6E73653A0A000016
:00000001FF
